E00ZP000000000         A07ECF-IF ZPM                 ZPM/2EFC LOGGER     00000001000000000000000000000000000000000000000000nomedosoftwarehouse                     nomedoaplicativo                        1.1.1     linha1aplicativo                          linha2aplicativo                          
E01ZP000000000         AECF-IF ZPM                 ZPM/2EFC LOGGER     01.00.01  2007071214514902300000000000000TDM000001000112200711192007111901.01.01AC1704 01.00.00
E02ZP000000000         AZPM/2EFC LOGGER     00000000000000888888888888  CONTRIBUINTE EXEMPLO S/A                AV CAMILO PESTANA 000, SÃO PAULO, SP, CEP 00000-000                                                                     2007073116285000000100000000002142866407
E12ZP000000000         AZPM/2EFC LOGGER     07000112046397000001200711192007111921510800000000155375S
E13ZP000000000         AZPM/2EFC LOGGER     07000112DT     0000000000001
E13ZP000000000         AZPM/2EFC LOGGER     07000112Can-T  0000000005201
E13ZP000000000         AZPM/2EFC LOGGER     07000112OPNF   0000000171084
E13ZP000000000         AZPM/2EFC LOGGER     0700011206T03200000000134563
E13ZP000000000         AZPM/2EFC LOGGER     07000112F1     0000000013700
E13ZP000000000         AZPM/2EFC LOGGER     07000112N1     0000000001910
E14ZP000000000         AZPM/2EFC LOGGER     0703718604610520071119000000000005400000000000000V0000000000000V00000000000540N0000000000000 Cliente Exemplo                         00000000000191
E14ZP000000000         AZPM/2EFC LOGGER     0703718704610620071119000000000005300000000000000V0000000000000V00000000000530N0000000000000 Cliente Exemplo   CPF Inválido          00000000000192
E14ZP000000000         AZPM/2EFC LOGGER     0703718804610720071119000000000004300000000000000V0000000000000V00000000000430N0000000000000                                         00000000000000
E14ZP000000000         AZPM/2EFC LOGGER     0703718904610820071119000000000003400000000000000V0000000000000V00000000000340N0000000000000                                         00000000000000
E14ZP000000000         AZPM/2EFC LOGGER     0703719004610920071119000000000003100000000000000V0000000000000V00000000000310N0000000000000                                         00000000000000
E14ZP000000000         AZPM/2EFC LOGGER     0703719104611020071119000000000004500000000000000V0000000000000V00000000000450N0000000000000                                         00000000000000
E14ZP000000000         AZPM/2EFC LOGGER     0703719204611120071119000000000002800000000000000V0000000000000V00000000000280N0000000000000                                         00000000000000
E14ZP000000000         AZPM/2EFC LOGGER     0703719304611220071119000000000005600000000000000V0000000000000V00000000000560N0000000000000                                         00000000000000
E14ZP000000000         AZPM/2EFC LOGGER     0703719404611320071119000000000007100000000000000V0000000000000V00000000000710N0000000000000                                         00000000000000
E14ZP000000000         AZPM/2EFC LOGGER     0703719504611420071119000000000012400000000000000V0000000000000V00000000001240N0000000000000                                         00000000000000
E14ZP000000000         AZPM/2EFC LOGGER     0703719604611520071119000000000004800000000000000V0000000000000V00000000000480N0000000000000                                         00000000000000
E14ZP000000000         AZPM/2EFC LOGGER     0703719704611620071119000000000006200000000000000V0000000000000V00000000000620N0000000000000                                         00000000000000
E14ZP000000000         AZPM/2EFC LOGGER     0703719804612020071119000000000006900000000000000V0000000000000V00000000000690N0000000000000                                         00000000000000
E14ZP000000000         AZPM/2EFC LOGGER     0703719904612120071119000000000008400000000000000V0000000000000V00000000000840N0000000000000                                         00000000000000
E14ZP000000000         AZPM/2EFC LOGGER     0703720004612320071119000000000009900000000000000V0000000000000V00000000000990N0000000000000                                         00000000000000
E14ZP000000000         AZPM/2EFC LOGGER     0703720104612520071119000000000012400000000000000V0000000000000V00000000001240N0000000000000                                         00000000000000
E14ZP000000000         AZPM/2EFC LOGGER     0703720204612620071119000000000011900000000000000V0000000000000V00000000001190N0000000000000                                         00000000000000
E14ZP000000000         AZPM/2EFC LOGGER     0703720304612820071119000000000010800000000000000V0000000000000V00000000001080N0000000000000                                         00000000000000
E14ZP000000000         AZPM/2EFC LOGGER     0703720404612920071119000000000022200000000000000V0000000000000V00000000002220N0000000000000                                         00000000000000
E14ZP000000000         AZPM/2EFC LOGGER     0703720504613020071119000000000002800000000000000V0000000000000V00000000000280N0000000000000                                         00000000000000
E14ZP000000000         AZPM/2EFC LOGGER     0703720604613220071119000000000009300000000000000V0000000000000V00000000000930N0000000000000                                         00000000000000
E14ZP000000000         AZPM/2EFC LOGGER     0703720704613420071119000000000013000000000000000V0000000000000V00000000001300N0000000000000                                         00000000000000
E14ZP000000000         AZPM/2EFC LOGGER     0703720804613520071119000000000011600000000000000V0000000000000V00000000001160N0000000000000                                         00000000000000
E14ZP000000000         AZPM/2EFC LOGGER     0703720904613720071119000000000010700000000000000V0000000000000V00000000001070N0000000000000                                         00000000000000
E14ZP000000000         AZPM/2EFC LOGGER     0703721004613920071119000000000012500000000000000V0000000000000V00000000001250N0000000000000                                         00000000000000
E14ZP000000000         AZPM/2EFC LOGGER     0703721104614020071119000000000010200000000000000V0000000000000V00000000001020N0000000000000                                         00000000000000
E14ZP000000000         AZPM/2EFC LOGGER     0703721204614120071119000000000009200000000000000V0000000000000V00000000000920N0000000000000                                         00000000000000
E14ZP000000000         AZPM/2EFC LOGGER     0703721304614220071119000000000020400000000000000V0000000000000V00000000002040N0000000000000                                         00000000000000
E14ZP000000000         AZPM/2EFC LOGGER     0703721404614420071119000000000003000000000000000V0000000000000V00000000000300N0000000000000                                         00000000000000
E14ZP000000000         AZPM/2EFC LOGGER     0703721504614520071119000000000009200000000000000V0000000000000V00000000000920N0000000000000                                         00000000000000
E14ZP000000000         AZPM/2EFC LOGGER     0703721604614720071119000000000008400000000000000V0000000000000V00000000000840N0000000000000                                         00000000000000
E14ZP000000000         AZPM/2EFC LOGGER     0703721704614820071119000000000006800000000000000V0000000000000V00000000000680N0000000000000                                         00000000000000
E14ZP000000000         AZPM/2EFC LOGGER     0703721804615020071119000000000001600000000000000V0000000000000V00000000000160N0000000000000                                         00000000000000
E14ZP000000000         AZPM/2EFC LOGGER     0703721904615120071119000000000001600000000000000V0000000000000V00000000000160N0000000000000                                         00000000000000
E14ZP000000000         AZPM/2EFC LOGGER     0703722004615220071119000000000003200000000000000V0000000000000V00000000000320N0000000000000                                         00000000000000
E14ZP000000000         AZPM/2EFC LOGGER     0703722104615320071119000000000019810000000000000V0000000000000V00000000001981N0000000000000                                         00000000000000
E14ZP000000000         AZPM/2EFC LOGGER     0703722204615420071119000000000010400000000000000V0000000000000V00000000001040N0000000000000                                         00000000000000
E14ZP000000000         AZPM/2EFC LOGGER     0703722304615520071119000000000007800000000000000V0000000000000V00000000000780N0000000000000                                         00000000000000
E14ZP000000000         AZPM/2EFC LOGGER     0703722404615620071119000000000008210000000000000V0000000000000V00000000000821N0000000000000                                         00000000000000
E14ZP000000000         AZPM/2EFC LOGGER     0703722504615720071119000000000005300000000000000V0000000000000V00000000000530N0000000000000                                         00000000000000
E14ZP000000000         AZPM/2EFC LOGGER     0703722604615820071119000000000011610000000000001V0000000000000V00000000001160N0000000000000D                                        00000000000000
E14ZP000000000         AZPM/2EFC LOGGER     0703722704616020071119000000000003800000000000000V0000000000000V00000000000380N0000000000000                                         00000000000000
E14ZP000000000         AZPM/2EFC LOGGER     0703722804616120071119000000000004600000000000000V0000000000000V00000000000460N0000000000000                                         00000000000000
E14ZP000000000         AZPM/2EFC LOGGER     0703722904616320071119000000000010800000000000000V0000000000000V00000000001080N0000000000000                                         00000000000000
E14ZP000000000         AZPM/2EFC LOGGER     0703723004616520071119000000000008900000000000000V0000000000000V00000000000890N0000000000000                                         00000000000000
E14ZP000000000         AZPM/2EFC LOGGER     0703723104616620071119000000000011900000000000000V0000000000000V00000000001190N0000000000000                                         00000000000000
E14ZP000000000         AZPM/2EFC LOGGER     0703723204616920071119000000000001400000000000000V0000000000000V00000000000140N0000000000000                                         00000000000000
E14ZP000000000         AZPM/2EFC LOGGER     0703723304617020071119000000000010700000000000000V0000000000000V00000000001070N0000000000000                                         00000000000000
E14ZP000000000         AZPM/2EFC LOGGER     0703723404617120071119000000000008900000000000000V0000000000000V00000000000890N0000000000000                                         00000000000000
E14ZP000000000         AZPM/2EFC LOGGER     0703723504617220071119000000000023520000000000000V0000000000000V00000000002352N0000000000000                                         00000000000000
E14ZP000000000         AZPM/2EFC LOGGER     0703723604617320071119000000000006600000000000000V0000000000000V00000000000660N0000000000000                                         00000000000000
E14ZP000000000         AZPM/2EFC LOGGER     0703723704617420071119000000000009400000000000000V0000000000000V00000000000940N0000000000000                                         00000000000000
E14ZP000000000         AZPM/2EFC LOGGER     0703723804618120071119000000000011610000000000000V0000000000000V00000000001161N0000000000000                                         00000000000000
E14ZP000000000         AZPM/2EFC LOGGER     0703723904618320071119000000000003500000000000000V0000000000000V00000000000350N0000000000000                                         00000000000000
E14ZP000000000         AZPM/2EFC LOGGER     0703724004618520071119000000000004400000000000000V0000000000000V00000000000440N0000000000000                                         00000000000000
E14ZP000000000         AZPM/2EFC LOGGER     0703724104618620071119000000000011700000000000000V0000000000000V00000000001170N0000000000000                                         00000000000000
E14ZP000000000         AZPM/2EFC LOGGER     0703724204618820071119000000000004200000000000000V0000000000000V00000000000420N0000000000000                                         00000000000000
E14ZP000000000         AZPM/2EFC LOGGER     0703724304618920071119000000000008100000000000000V0000000000000V00000000000810N0000000000000                                         00000000000000
E14ZP000000000         AZPM/2EFC LOGGER     0703724404619020071119000000000010210000000000000V0000000000000V00000000001021N0000000000000                                         00000000000000
E14ZP000000000         AZPM/2EFC LOGGER     0703724504619120071119000000000009200000000000000V0000000000000V00000000000920N0000000000000                                         00000000000000
E14ZP000000000         AZPM/2EFC LOGGER     0703724604619220071119000000000001700000000000000V0000000000000V00000000000170N0000000000000                                         00000000000000
E14ZP000000000         AZPM/2EFC LOGGER     0703724704619420071119000000000010200000000000000V0000000000000V00000000001020N0000000000000                                         00000000000000
E14ZP000000000         AZPM/2EFC LOGGER     0703724804619520071119000000000000010000000000000V0000000000000V00000000000001N0000000000000                                         00000000000000
E14ZP000000000         AZPM/2EFC LOGGER     0703724904619620071119000000000011910000000000000V0000000000000V00000000001191N0000000000000                                         00000000000000
E14ZP000000000         AZPM/2EFC LOGGER     0703725004619820071119000000000002800000000000000V0000000000000V00000000000280N0000000000000                                         00000000000000
E14ZP000000000         AZPM/2EFC LOGGER     0703725104620020071119000000000007700000000000000V0000000000000V00000000000770N0000000000000                                         00000000000000
E14ZP000000000         AZPM/2EFC LOGGER     0703725204620120071119000000000024200000000000000V0000000000000V00000000002420N0000000000000                                         00000000000000
E14ZP000000000         AZPM/2EFC LOGGER     0703725304620320071119000000000009230000000000000V0000000000000V00000000000923N0000000000000                                         00000000000000
E14ZP000000000         AZPM/2EFC LOGGER     0703725404620520071119000000000004600000000000000V0000000000000V00000000000460N0000000000000                                         00000000000000
E14ZP000000000         AZPM/2EFC LOGGER     0703725504620620071119000000000014010000000000000V0000000000000V00000000001401N0000000000000                                         00000000000000
E14ZP000000000         AZPM/2EFC LOGGER     0703725604620720071119000000000005400000000000000V0000000000000V00000000000540N0000000000000                                         00000000000000
E14ZP000000000         AZPM/2EFC LOGGER     0703725704620820071119000000000007900000000000000V0000000000000V00000000000790N0000000000000                                         00000000000000
E14ZP000000000         AZPM/2EFC LOGGER     0703725804621120071119000000000009000000000000000V0000000000000V00000000000900N0000000000000                                         00000000000000
E14ZP000000000         AZPM/2EFC LOGGER     0703725904621220071119000000000001500000000000000V0000000000000V00000000000150N0000000000000                                         00000000000000
E14ZP000000000         AZPM/2EFC LOGGER     0703726004621320071119000000000004800000000000000V0000000000000V00000000000480N0000000000000                                         00000000000000
E14ZP000000000         AZPM/2EFC LOGGER     0703726104621420071119000000000003400000000000000V0000000000000V00000000000340N0000000000000                                         00000000000000
E14ZP000000000         AZPM/2EFC LOGGER     0703726204621520071119000000000005400000000000000V0000000000000V00000000000540N0000000000000                                         00000000000000
E14ZP000000000         AZPM/2EFC LOGGER     0703726304621620071119000000000002700000000000000V0000000000000V00000000000270N0000000000000                                         00000000000000
E14ZP000000000         AZPM/2EFC LOGGER     0703726404621720071119000000000003500000000000000V0000000000000V00000000000350N0000000000000                                         00000000000000
E14ZP000000000         AZPM/2EFC LOGGER     0703726504621820071119000000000013500000000000000V0000000000000V00000000001350N0000000000000                                         00000000000000
E14ZP000000000         AZPM/2EFC LOGGER     0703726604621920071119000000000005110000000000000V0000000000000V00000000000511N0000000000000                                         00000000000000
E14ZP000000000         AZPM/2EFC LOGGER     0703726704622020071119000000000005800000000000000V0000000000000V00000000000580N0000000000000                                         00000000000000
E14ZP000000000         AZPM/2EFC LOGGER     0703726804622120071119000000000005600000000000000V0000000000000V00000000000560N0000000000000                                         00000000000000
E14ZP000000000         AZPM/2EFC LOGGER     0703726904622220071119000000000008210000000000000V0000000000000V00000000000821N0000000000000                                         00000000000000
E14ZP000000000         AZPM/2EFC LOGGER     0703727004622320071119000000000011910000000000000V0000000000000V00000000001191N0000000000000                                         00000000000000
E14ZP000000000         AZPM/2EFC LOGGER     0703727104622420071119000000000001700000000000000V0000000000000V00000000000170N0000000000000                                         00000000000000
E14ZP000000000         AZPM/2EFC LOGGER     0703727204622620071119000000000003300000000000000V0000000000000V00000000000330N0000000000000                                         00000000000000
E14ZP000000000         AZPM/2EFC LOGGER     0703727304622820071119000000000013800000000000000V0000000000000V00000000001380N0000000000000                                         00000000000000
E14ZP000000000         AZPM/2EFC LOGGER     0703727404622920071119000000000004600000000000000V0000000000000V00000000000460N0000000000000                                         00000000000000
E14ZP000000000         AZPM/2EFC LOGGER     0703727504623120071119000000000004400000000000000V0000000000000V00000000000440N0000000000000                                         00000000000000
E14ZP000000000         AZPM/2EFC LOGGER     0703727604623220071119000000000009000000000000000V0000000000000V00000000000900N0000000000000                                         00000000000000
E14ZP000000000         AZPM/2EFC LOGGER     0703727704623320071119000000000004500000000000000V0000000000000V00000000000450N0000000000000                                         00000000000000
E14ZP000000000         AZPM/2EFC LOGGER     0703727804623520071119000000000011200000000000000V0000000000000V00000000001120N0000000000000                                         00000000000000
E14ZP000000000         AZPM/2EFC LOGGER     0703727904623720071119000000000011100000000000000V0000000000000V00000000001110N0000000000000                                         00000000000000
E14ZP000000000         AZPM/2EFC LOGGER     0703728004623920071119000000000005300000000000000V0000000000000V00000000000530N0000000000000                                         00000000000000
E14ZP000000000         AZPM/2EFC LOGGER     0703728104624020071119000000000006000000000000000V0000000000000V00000000000600N0000000000000                                         00000000000000
E14ZP000000000         AZPM/2EFC LOGGER     0703728204624120071119000000000005600000000000000V0000000000000V00000000000560N0000000000000                                         00000000000000
E14ZP000000000         AZPM/2EFC LOGGER     0703728304624320071119000000000007200000000000000V0000000000000V00000000000720N0000000000000                                         00000000000000
E14ZP000000000         AZPM/2EFC LOGGER     0703728404624420071119000000000004600000000000000V0000000000000V00000000000460N0000000000000                                         00000000000000
E14ZP000000000         AZPM/2EFC LOGGER     0703728504624520071119000000000018500000000000000V0000000000000V00000000001850N0000000000000                                         00000000000000
E14ZP000000000         AZPM/2EFC LOGGER     0703728604624620071119000000000004500000000000000V0000000000000V00000000000450N0000000000000                                         00000000000000
E14ZP000000000         AZPM/2EFC LOGGER     0703728704624720071119000000000003600000000000000V0000000000000V00000000000360N0000000000000                                         00000000000000
E14ZP000000000         AZPM/2EFC LOGGER     0703728804624820071119000000000006400000000000000V0000000000000V00000000000640N0000000000000                                         00000000000000
E14ZP000000000         AZPM/2EFC LOGGER     0703728904625020071119000000000005200000000000000V0000000000000V00000000000520N0000000000000                                         00000000000000
E14ZP000000000         AZPM/2EFC LOGGER     0703729004625120071119000000000002800000000000000V0000000000000V00000000000280N0000000000000                                         00000000000000
E14ZP000000000         AZPM/2EFC LOGGER     0703729104625220071119000000000003500000000000000V0000000000000V00000000000350N0000000000000                                         00000000000000
E14ZP000000000         AZPM/2EFC LOGGER     0703729204625320071119000000000003300000000000000V0000000000000V00000000000330N0000000000000                                         00000000000000
E14ZP000000000         AZPM/2EFC LOGGER     0703729304625420071119000000000003200000000000000V0000000000000V00000000000320N0000000000000                                         00000000000000
E14ZP000000000         AZPM/2EFC LOGGER     0703729404625520071119000000000009810000000000000V0000000000000V00000000000981N0000000000000                                         00000000000000
E14ZP000000000         AZPM/2EFC LOGGER     0703729504625620071119000000000006400000000000000V0000000000000V00000000000640N0000000000000                                         00000000000000
E14ZP000000000         AZPM/2EFC LOGGER     0703729604625720071119000000000003700000000000000V0000000000000V00000000000370N0000000000000                                         00000000000000
E14ZP000000000         AZPM/2EFC LOGGER     0703729704625820071119000000000004600000000000000V0000000000000V00000000000460N0000000000000                                         00000000000000
E14ZP000000000         AZPM/2EFC LOGGER     0703729804626020071119000000000007900000000000000V0000000000000V00000000000790N0000000000000                                         00000000000000
E14ZP000000000         AZPM/2EFC LOGGER     0703729904626120071119000000000000000000000000000V0000000000000V00000000000000S0000000000000                                         00000000000000
E14ZP000000000         AZPM/2EFC LOGGER     0703730004626220071119000000000008200000000000000V0000000000000V00000000000820N0000000000000                                         00000000000000
E14ZP000000000         AZPM/2EFC LOGGER     0703730104626320071119000000000003400000000000000V0000000000000V00000000000340N0000000000000                                         00000000000000
E14ZP000000000         AZPM/2EFC LOGGER     0703730204626420071119000000000009900000000000000V0000000000000V00000000000990N0000000000000                                         00000000000000
E14ZP000000000         AZPM/2EFC LOGGER     0703730304626520071119000000000012000000000000000V0000000000000V00000000001200N0000000000000                                         00000000000000
E14ZP000000000         AZPM/2EFC LOGGER     0703730404626720071119000000000003200000000000000V0000000000000V00000000000320N0000000000000                                         00000000000000
E14ZP000000000         AZPM/2EFC LOGGER     0703730504626820071119000000000014010000000000000V0000000000000V00000000001401N0000000000000                                         00000000000000
E14ZP000000000         AZPM/2EFC LOGGER     0703730604627020071119000000000001900000000000000V0000000000000V00000000000190N0000000000000                                         00000000000000
E14ZP000000000         AZPM/2EFC LOGGER     0703730704627120071119000000000010400000000000000V0000000000000V00000000001040N0000000000000                                         00000000000000
E14ZP000000000         AZPM/2EFC LOGGER     0703730804627220071119000000000001700000000000000V0000000000000V00000000000170N0000000000000                                         00000000000000
E14ZP000000000         AZPM/2EFC LOGGER     0703730904627320071119000000000004800000000000000V0000000000000V00000000000480N0000000000000                                         00000000000000
E14ZP000000000         AZPM/2EFC LOGGER     0703731004627420071119000000000001600000000000000V0000000000000V00000000000160N0000000000000                                         00000000000000
E14ZP000000000         AZPM/2EFC LOGGER     0703731104627520071119000000000001700000000000000V0000000000000V00000000000170N0000000000000                                         00000000000000
E14ZP000000000         AZPM/2EFC LOGGER     0703731204627720071119000000000003300000000000000V0000000000000V00000000000330N0000000000000                                         00000000000000
E14ZP000000000         AZPM/2EFC LOGGER     0703731304627920071119000000000003200000000000000V0000000000000V00000000000320N0000000000000                                         00000000000000
E14ZP000000000         AZPM/2EFC LOGGER     0703731404628120071119000000000003000000000000000V0000000000000V00000000000300N0000000000000                                         00000000000000
E14ZP000000000         AZPM/2EFC LOGGER     0703731504628220071119000000000010500000000000000V0000000000000V00000000001050N0000000000000                                         00000000000000
E14ZP000000000         AZPM/2EFC LOGGER     0703731604628420071119000000000004400000000000000V0000000000000V00000000000440N0000000000000                                         00000000000000
E14ZP000000000         AZPM/2EFC LOGGER     0703731704628520071119000000000003800000000000000V0000000000000V00000000000380N0000000000000                                         00000000000000
E14ZP000000000         AZPM/2EFC LOGGER     0703731804628720071119000000000012800000000000000V0000000000000V00000000001280N0000000000000                                         00000000000000
E14ZP000000000         AZPM/2EFC LOGGER     0703731904628820071119000000000001700000000000000V0000000000000V00000000000170N0000000000000                                         00000000000000
E14ZP000000000         AZPM/2EFC LOGGER     0703732004628920071119000000000006000000000000000V0000000000000V00000000000600N0000000000000                                         00000000000000
E14ZP000000000         AZPM/2EFC LOGGER     0703732104629020071119000000000004900000000000000V0000000000000V00000000000490N0000000000000                                         00000000000000
E14ZP000000000         AZPM/2EFC LOGGER     0703732204629220071119000000000007900000000000000V0000000000000V00000000000790N0000000000000                                         00000000000000
E14ZP000000000         AZPM/2EFC LOGGER     0703732304629320071119000000000002600000000000000V0000000000000V00000000000260N0000000000000                                         00000000000000
E14ZP000000000         AZPM/2EFC LOGGER     0703732404629420071119000000000006000000000000000V0000000000000V00000000000600N0000000000000                                         00000000000000
E14ZP000000000         AZPM/2EFC LOGGER     0703732504629520071119000000000007800000000000000V0000000000000V00000000000780N0000000000000                                         00000000000000
E14ZP000000000         AZPM/2EFC LOGGER     0703732604629620071119000000000006400000000000000V0000000000000V00000000000640N0000000000000                                         00000000000000
E14ZP000000000         AZPM/2EFC LOGGER     0703732704629720071119000000000002200000000000000V0000000000000V00000000000220N0000000000000                                         00000000000000
E14ZP000000000         AZPM/2EFC LOGGER     0703732804629820071119000000000007500000000000000V0000000000000V00000000000750N0000000000000                                         00000000000000
E14ZP000000000         AZPM/2EFC LOGGER     0703732904630020071119000000000007700000000000000V0000000000000V00000000000770N0000000000000                                         00000000000000
E14ZP000000000         AZPM/2EFC LOGGER     0703733004630120071119000000000004300000000000000V0000000000000V00000000000430N0000000000000                                         00000000000000
E14ZP000000000         AZPM/2EFC LOGGER     0703733104630220071119000000000006800000000000000V0000000000000V00000000000680N0000000000000                                         00000000000000
E14ZP000000000         AZPM/2EFC LOGGER     0703733204630320071119000000000008210000000000000V0000000000000V00000000000821N0000000000000                                         00000000000000
E14ZP000000000         AZPM/2EFC LOGGER     0703733304630420071119000000000007200000000000000V0000000000000V00000000000720N0000000000000                                         00000000000000
E14ZP000000000         AZPM/2EFC LOGGER     0703733404630520071119000000000005600000000000000V0000000000000V00000000000560N0000000000000                                         00000000000000
E14ZP000000000         AZPM/2EFC LOGGER     0703733504630620071119000000000014200000000000000V0000000000000V00000000001420N0000000000000                                         00000000000000
E14ZP000000000         AZPM/2EFC LOGGER     0703733604630720071119000000000004300000000000000V0000000000000V00000000000430N0000000000000                                         00000000000000
E14ZP000000000         AZPM/2EFC LOGGER     0703733704630820071119000000000002700000000000000V0000000000000V00000000000270N0000000000000                                         00000000000000
E14ZP000000000         AZPM/2EFC LOGGER     0703733804631020071119000000000012310000000000000V0000000000000V00000000001231N0000000000000                                         00000000000000
E14ZP000000000         AZPM/2EFC LOGGER     0703733904631120071119000000000008200000000000000V0000000000000V00000000000820N0000000000000                                         00000000000000
E14ZP000000000         AZPM/2EFC LOGGER     0703734004631320071119000000000010400000000000000V0000000000000V00000000001040N0000000000000                                         00000000000000
E14ZP000000000         AZPM/2EFC LOGGER     0703734104631420071119000000000003400000000000000V0000000000000V00000000000340N0000000000000                                         00000000000000
E14ZP000000000         AZPM/2EFC LOGGER     0703734204631620071119000000000015500000000000000V0000000000000V00000000001550N0000000000000                                         00000000000000
E14ZP000000000         AZPM/2EFC LOGGER     0703734304631720071119000000000019600000000000000V0000000000000V00000000001960N0000000000000                                         00000000000000
E14ZP000000000         AZPM/2EFC LOGGER     0703734404631820071119000000000009010000000000000V0000000000000V00000000000901N0000000000000                                         00000000000000
E14ZP000000000         AZPM/2EFC LOGGER     0703734504631920071119000000000003600000000000000V0000000000000V00000000000360N0000000000000                                         00000000000000
E14ZP000000000         AZPM/2EFC LOGGER     0703734604632120071119000000000004600000000000000V0000000000000V00000000000460N0000000000000                                         00000000000000
E14ZP000000000         AZPM/2EFC LOGGER     0703734704632220071119000000000002700000000000000V0000000000000V00000000000270N0000000000000                                         00000000000000
E14ZP000000000         AZPM/2EFC LOGGER     0703734804632320071119000000000002400000000000000V0000000000000V00000000000240N0000000000000                                         00000000000000
E14ZP000000000         AZPM/2EFC LOGGER     0703734904632420071119000000000008400000000000000V0000000000000V00000000000840N0000000000000                                         00000000000000
E14ZP000000000         AZPM/2EFC LOGGER     0703735004632620071119000000000001700000000000000V0000000000000V00000000000170N0000000000000                                         00000000000000
E14ZP000000000         AZPM/2EFC LOGGER     0703735104632720071119000000000007700000000000000V0000000000000V00000000000770N0000000000000                                         00000000000000
E14ZP000000000         AZPM/2EFC LOGGER     0703735204632820071119000000000004600000000000000V0000000000000V00000000000460N0000000000000                                         00000000000000
E14ZP000000000         AZPM/2EFC LOGGER     0703735304632920071119000000000012200000000000000V0000000000000V00000000001220N0000000000000                                         00000000000000
E14ZP000000000         AZPM/2EFC LOGGER     0703735404633020071119000000000003800000000000000V0000000000000V00000000000380N0000000000000                                         00000000000000
E14ZP000000000         AZPM/2EFC LOGGER     0703735504633220071119000000000007000000000000000V0000000000000V00000000000700N0000000000000                                         00000000000000
E14ZP000000000         AZPM/2EFC LOGGER     0703735604633420071119000000000009000000000000000V0000000000000V00000000000900N0000000000000                                         00000000000000
E14ZP000000000         AZPM/2EFC LOGGER     0703735704633520071119000000000004600000000000000V0000000000000V00000000000460N0000000000000                                         00000000000000
E14ZP000000000         AZPM/2EFC LOGGER     0703735804633620071119000000000007800000000000000V0000000000000V00000000000780N0000000000000                                         00000000000000
E14ZP000000000         AZPM/2EFC LOGGER     0703735904633720071119000000000005600000000000000V0000000000000V00000000000560N0000000000000                                         00000000000000
E14ZP000000000         AZPM/2EFC LOGGER     0703736004633820071119000000000003700000000000000V0000000000000V00000000000370N0000000000000                                         00000000000000
E14ZP000000000         AZPM/2EFC LOGGER     0703736104633920071119000000000003800000000000000V0000000000000V00000000000380N0000000000000                                         00000000000000
E14ZP000000000         AZPM/2EFC LOGGER     0703736204634020071119000000000005200000000000000V0000000000000V00000000000520N0000000000000                                         00000000000000
E14ZP000000000         AZPM/2EFC LOGGER     0703736304634120071119000000000004800000000000000V0000000000000V00000000000480N0000000000000                                         00000000000000
E14ZP000000000         AZPM/2EFC LOGGER     0703736404634220071119000000000007200000000000000V0000000000000V00000000000720N0000000000000                                         00000000000000
E14ZP000000000         AZPM/2EFC LOGGER     0703736504634520071119000000000009700000000000000V0000000000000V00000000000970N0000000000000                                         00000000000000
E14ZP000000000         AZPM/2EFC LOGGER     0703736604634820071119000000000007200000000000000V0000000000000V00000000000720N0000000000000                                         00000000000000
E14ZP000000000         AZPM/2EFC LOGGER     0703736704635020071119000000000008210000000000000V0000000000000V00000000000821N0000000000000                                         00000000000000
E14ZP000000000         AZPM/2EFC LOGGER     0703736804635220071119000000000000500000000000000V0000000000000V00000000000050N0000000000000                                         00000000000000
E14ZP000000000         AZPM/2EFC LOGGER     0703736904635320071119000000000007300000000000000V0000000000000V00000000000730N0000000000000                                         00000000000000
E14ZP000000000         AZPM/2EFC LOGGER     0703737004635520071119000000000005600000000000000V0000000000000V00000000000560N0000000000000                                         00000000000000
E14ZP000000000         AZPM/2EFC LOGGER     0703737104635620071119000000000006300000000000000V0000000000000V00000000000630N0000000000000                                         00000000000000
E14ZP000000000         AZPM/2EFC LOGGER     0703737204635720071119000000000005200000000000000V0000000000000V00000000000520N0000000000000                                         00000000000000
E14ZP000000000         AZPM/2EFC LOGGER     0703737304635920071119000000000007600000000000000V0000000000000V00000000000760N0000000000000                                         00000000000000
E14ZP000000000         AZPM/2EFC LOGGER     0703737404636020071119000000000003200000000000000V0000000000000V00000000000320N0000000000000                                         00000000000000
E14ZP000000000         AZPM/2EFC LOGGER     0703737504636220071119000000000008300000000000000V0000000000000V00000000000830N0000000000000                                         00000000000000
E14ZP000000000         AZPM/2EFC LOGGER     0703737604636320071119000000000016800000000000000V0000000000000V00000000001680N0000000000000                                         00000000000000
E14ZP000000000         AZPM/2EFC LOGGER     0703737704636420071119000000000023800000000000000V0000000000000V00000000002380N0000000000000                                         00000000000000
E14ZP000000000         AZPM/2EFC LOGGER     0703737804636620071119000000000000010000000000000V0000000000000V00000000000001N0000000000000                                         00000000000000
E14ZP000000000         AZPM/2EFC LOGGER     0703737904636720071119000000000012200000000000000V0000000000000V00000000001220N0000000000000                                         00000000000000
E14ZP000000000         AZPM/2EFC LOGGER     0703738004636820071119000000000002000000000000000V0000000000000V00000000000200N0000000000000                                         00000000000000
E14ZP000000000         AZPM/2EFC LOGGER     0703738104636920071119000000000001700000000000000V0000000000000V00000000000170N0000000000000                                         00000000000000
E14ZP000000000         AZPM/2EFC LOGGER     0703738204637020071119000000000003400000000000000V0000000000000V00000000000340N0000000000000                                         00000000000000
E14ZP000000000         AZPM/2EFC LOGGER     0703738304637120071119000000000005300000000000000V0000000000000V00000000000530N0000000000000                                         00000000000000
E14ZP000000000         AZPM/2EFC LOGGER     0703738404637320071119000000000005600000000000000V0000000000000V00000000000560N0000000000000                                         00000000000000
E14ZP000000000         AZPM/2EFC LOGGER     0703738504637420071119000000000002700000000000000V0000000000000V00000000000270N0000000000000                                         00000000000000
E14ZP000000000         AZPM/2EFC LOGGER     0703738604637620071119000000000003600000000000000V0000000000000V00000000000360N0000000000000                                         00000000000000
E14ZP000000000         AZPM/2EFC LOGGER     0703738704637720071119000000000003700000000000000V0000000000000V00000000000370N0000000000000                                         00000000000000
E14ZP000000000         AZPM/2EFC LOGGER     0703738804637820071119000000000022600000000000000V0000000000000V00000000002260N0000000000000                                         00000000000000
E14ZP000000000         AZPM/2EFC LOGGER     0703738904638020071119000000000006600000000000000V0000000000000V00000000000660N0000000000000                                         00000000000000
E14ZP000000000         AZPM/2EFC LOGGER     0703739004638120071119000000000001600000000000000V0000000000000V00000000000160N0000000000000                                         00000000000000
E14ZP000000000         AZPM/2EFC LOGGER     0703739104638220071119000000000009210000000000000V0000000000000V00000000000921N0000000000000                                         00000000000000
E14ZP000000000         AZPM/2EFC LOGGER     0703739204638320071119000000000009000000000000000V0000000000000V00000000000900N0000000000000                                         00000000000000
E14ZP000000000         AZPM/2EFC LOGGER     0703739304638420071119000000000006700000000000000V0000000000000V00000000000670N0000000000000                                         00000000000000
E14ZP000000000         AZPM/2EFC LOGGER     0703739404638520071119000000000002600000000000000V0000000000000V00000000000260N0000000000000                                         00000000000000
E14ZP000000000         AZPM/2EFC LOGGER     0703739504638620071119000000000005600000000000000V0000000000000V00000000000560N0000000000000                                         00000000000000
E14ZP000000000         AZPM/2EFC LOGGER     0703739604638720071119000000000008000000000000000V0000000000000V00000000000800N0000000000000                                         00000000000000
E15ZP000000000         AZPM/2EFC LOGGER     070461050371860017110701570    PRODUTO 1 DO CUPOM 046105                                                                           0001000UN 00000260000000000000000000000000000260T0320  N000000000000000000000000000000000T32
E15ZP000000000         AZPM/2EFC LOGGER     070461050371860027111400148    PRODUTO 2 DO CUPOM 046105                                                                           0001000UN 00000280000000000000000000000000000280T0320  N000000000000000000000000000000000T32
E15ZP000000000         AZPM/2EFC LOGGER     070461060371870017111500281    PRODUTO 1 DO CUPOM 046106                                                                           0001000UN 00000270000000000000000000000000000270F1     N000000000000000000000000000000000T32
E15ZP000000000         AZPM/2EFC LOGGER     070461060371870027110701570    PRODUTO 2 DO CUPOM 046106                                                                           0001000UN 00000260000000000000000000000000000260T0320  N000000000000000000000000000000000T32
E15ZP000000000         AZPM/2EFC LOGGER     070461070371880017110701570    PRODUTO 1 DO CUPOM 046107                                                                           0001000UN 00000260000000000000000000000000000260T0320  N000000000000000000000000000000000T32
E15ZP000000000         AZPM/2EFC LOGGER     070461070371880027111400237    PRODUTO 2 DO CUPOM 046107                                                                           0001000UN 00000170000000000000000000000000000170T0320  N000000000000000000000000000000000T32
E15ZP000000000         AZPM/2EFC LOGGER     070461080371890017111400237    PRODUTO 1 DO CUPOM 046108                                                                           0002000UN 00000170000000000000000000000000000340T0320  N000000000000000000000000000000000T32
E15ZP000000000         AZPM/2EFC LOGGER     070461090371900017111400237    PRODUTO 1 DO CUPOM 046109                                                                           0001000UN 00000170000000000000000000000000000170T0320  N000000000000000000000000000000000T32
E15ZP000000000         AZPM/2EFC LOGGER     070461090371900027110708000    PRODUTO 2 DO CUPOM 046109                                                                           0001000UN 00000140000000000000000000000000000140T0320  N000000000000000000000000000000000T32
E15ZP000000000         AZPM/2EFC LOGGER     070461100371910017111400148    PRODUTO 1 DO CUPOM 046110                                                                           0001000UN 00000280000000000000000000000000000280T0320  N000000000000000000000000000000000T32
E15ZP000000000         AZPM/2EFC LOGGER     070461100371910027111400237    PRODUTO 2 DO CUPOM 046110                                                                           0001000UN 00000170000000000000000000000000000170T0320  N000000000000000000000000000000000T32
E15ZP000000000         AZPM/2EFC LOGGER     070461110371920017110706332    PRODUTO 1 DO CUPOM 046111                                                                           0001000UN 00000120000000000000000000000000000120T0320  N000000000000000000000000000000000T32
E15ZP000000000         AZPM/2EFC LOGGER     070461110371920027110701502    PRODUTO 2 DO CUPOM 046111                                                                           0001000UN 00000160000000000000000000000000000160T0320  N000000000000000000000000000000000T32
E15ZP000000000         AZPM/2EFC LOGGER     070461120371930017110708000    PRODUTO 1 DO CUPOM 046112                                                                           0002000UN 00000140000000000000000000000000000280T0320  N000000000000000000000000000000000T32
E15ZP000000000         AZPM/2EFC LOGGER     070461120371930027111400158    PRODUTO 2 DO CUPOM 046112                                                                           0001000UN 00000280000000000000000000000000000280T0320  N000000000000000000000000000000000T32
E15ZP000000000         AZPM/2EFC LOGGER     070461130371940017111400237    PRODUTO 1 DO CUPOM 046113                                                                           0001000UN 00000170000000000000000000000000000170T0320  N000000000000000000000000000000000T32
E15ZP000000000         AZPM/2EFC LOGGER     070461130371940027111400107    PRODUTO 2 DO CUPOM 046113                                                                           0001000UN 00000280000000000000000000000000000280T0320  N000000000000000000000000000000000T32
E15ZP000000000         AZPM/2EFC LOGGER     070461130371940037110704693    PRODUTO 3 DO CUPOM 046113                                                                           0001000UN 00000260000000000000000000000000000260T0320  N000000000000000000000000000000000T32
E15ZP000000000         AZPM/2EFC LOGGER     070461140371950017110901770    PRODUTO 1 DO CUPOM 046114                                                                           0001000UN 00000400000000000000000000000000000400T0320  N000000000000000000000000000000000T32
E15ZP000000000         AZPM/2EFC LOGGER     070461140371950027111400189    PRODUTO 2 DO CUPOM 046114                                                                           0001000UN 00000220000000000000000000000000000220T0320  N000000000000000000000000000000000T32
E15ZP000000000         AZPM/2EFC LOGGER     070461140371950037110704657    PRODUTO 3 DO CUPOM 046114                                                                           0001000UN 00000620000000000000000000000000000620T0320  N000000000000000000000000000000000T32
E15ZP000000000         AZPM/2EFC LOGGER     070461150371960017110701502    PRODUTO 1 DO CUPOM 046115                                                                           0003000UN 00000160000000000000000000000000000480T0320  N000000000000000000000000000000000T32
E15ZP000000000         AZPM/2EFC LOGGER     070461160371970017110704657    PRODUTO 1 DO CUPOM 046116                                                                           0001000UN 00000620000000000000000000000000000620T0320  N000000000000000000000000000000000T32
E15ZP000000000         AZPM/2EFC LOGGER     070461200371980017110221035    PRODUTO 1 DO CUPOM 046120                                                                           0001000UN 00000690000000000000000000000000000690T0320  N000000000000000000000000000000000T32
E15ZP000000000         AZPM/2EFC LOGGER     070461210371990017110706274    PRODUTO 1 DO CUPOM 046121                                                                           0001000UN 00000620000000000000000000000000000620T0320  N000000000000000000000000000000000T32
E15ZP000000000         AZPM/2EFC LOGGER     070461210371990027111400159    PRODUTO 2 DO CUPOM 046121                                                                           0001000UN 00000220000000000000000000000000000220T0320  N000000000000000000000000000000000T32
E15ZP000000000         AZPM/2EFC LOGGER     070461230372000017110901769    PRODUTO 1 DO CUPOM 046123                                                                           0001000UN 00000300000000000000000000000000000300T0320  N000000000000000000000000000000000T32
E15ZP000000000         AZPM/2EFC LOGGER     070461230372000027110221035    PRODUTO 2 DO CUPOM 046123                                                                           0001000UN 00000690000000000000000000000000000690T0320  N000000000000000000000000000000000T32
E15ZP000000000         AZPM/2EFC LOGGER     070461250372010017110704657    PRODUTO 1 DO CUPOM 046125                                                                           0002000UN 00000620000000000000000000000000001240T0320  N000000000000000000000000000000000T32
E15ZP000000000         AZPM/2EFC LOGGER     070461260372020017110802949    PRODUTO 1 DO CUPOM 046126                                                                           0001000UN 00000270000000000000000000000000000270T0320  N000000000000000000000000000000000T32
E15ZP000000000         AZPM/2EFC LOGGER     070461260372020027110901769    PRODUTO 2 DO CUPOM 046126                                                                           0001000UN 00000300000000000000000000000000000300T0320  N000000000000000000000000000000000T32
E15ZP000000000         AZPM/2EFC LOGGER     070461260372020037110706262    PRODUTO 3 DO CUPOM 046126                                                                           0001000UN 00000620000000000000000000000000000620T0320  N000000000000000000000000000000000T32
E15ZP000000000         AZPM/2EFC LOGGER     070461280372030017110704657    PRODUTO 1 DO CUPOM 046128                                                                           0001000UN 00000620000000000000000000000000000620T0320  N000000000000000000000000000000000T32
E15ZP000000000         AZPM/2EFC LOGGER     070461280372030027111500209    PRODUTO 2 DO CUPOM 046128                                                                           0001000UN 00000200000000000000000000000000000200F1     N000000000000000000000000000000000T32
E15ZP000000000         AZPM/2EFC LOGGER     070461280372030037110705307    PRODUTO 3 DO CUPOM 046128                                                                           0001000UN 00000260000000000000000000000000000260T0320  N000000000000000000000000000000000T32
E15ZP000000000         AZPM/2EFC LOGGER     070461290372040017110704657    PRODUTO 1 DO CUPOM 046129                                                                           0002000UN 00000620000000000000000000000000001240T0320  N000000000000000000000000000000000T32
E15ZP000000000         AZPM/2EFC LOGGER     070461290372040027110901770    PRODUTO 2 DO CUPOM 046129                                                                           0002000UN 00000400000000000000000000000000000800T0320  N000000000000000000000000000000000T32
E15ZP000000000         AZPM/2EFC LOGGER     070461290372040037111200111    PRODUTO 3 DO CUPOM 046129                                                                           0001000UN 00000180000000000000000000000000000180T0320  N000000000000000000000000000000000T32
E15ZP000000000         AZPM/2EFC LOGGER     070461300372050017111400121    PRODUTO 1 DO CUPOM 046130                                                                           0001000UN 00000280000000000000000000000000000280T0320  N000000000000000000000000000000000T32
E15ZP000000000         AZPM/2EFC LOGGER     070461320372060017110802944    PRODUTO 1 DO CUPOM 046132                                                                           0001000UN 00000370000000000000000000000000000370T0320  N000000000000000000000000000000000T32
E15ZP000000000         AZPM/2EFC LOGGER     070461320372060027110901769    PRODUTO 2 DO CUPOM 046132                                                                           0001000UN 00000300000000000000000000000000000300T0320  N000000000000000000000000000000000T32
E15ZP000000000         AZPM/2EFC LOGGER     070461320372060037110701535    PRODUTO 3 DO CUPOM 046132                                                                           0001000UN 00000260000000000000000000000000000260T0320  N000000000000000000000000000000000T32
E15ZP000000000         AZPM/2EFC LOGGER     070461340372070017110221035    PRODUTO 1 DO CUPOM 046134                                                                           0001000UN 00000690000000000000000000000000000690T0320  N000000000000000000000000000000000T32
E15ZP000000000         AZPM/2EFC LOGGER     070461340372070027111500208    PRODUTO 2 DO CUPOM 046134                                                                           0001000UN 00000200000000000000000000000000000200F1     N000000000000000000000000000000000T32
E15ZP000000000         AZPM/2EFC LOGGER     070461340372070037111200103    PRODUTO 3 DO CUPOM 046134                                                                           0002000UN 00000120000000000000000000000000000240T0320  N000000000000000000000000000000000T32
E15ZP000000000         AZPM/2EFC LOGGER     070461340372070047111400237    PRODUTO 4 DO CUPOM 046134                                                                           0001000UN 00000170000000000000000000000000000170T0320  N000000000000000000000000000000000T32
E15ZP000000000         AZPM/2EFC LOGGER     070461350372080017110704657    PRODUTO 1 DO CUPOM 046135                                                                           0001000UN 00000620000000000000000000000000000620T0320  N000000000000000000000000000000000T32
E15ZP000000000         AZPM/2EFC LOGGER     070461350372080027111500208    PRODUTO 2 DO CUPOM 046135                                                                           0001000UN 00000200000000000000000000000000000200F1     N000000000000000000000000000000000T32
E15ZP000000000         AZPM/2EFC LOGGER     070461350372080037110706252    PRODUTO 3 DO CUPOM 046135                                                                           0001000UN 00000340000000000000000000000000000340T0320  N000000000000000000000000000000000T32
E15ZP000000000         AZPM/2EFC LOGGER     070461370372090017110802948    PRODUTO 1 DO CUPOM 046137                                                                           0001000UN 00000270000000000000000000000000000270T0320  N000000000000000000000000000000000T32
E15ZP000000000         AZPM/2EFC LOGGER     070461370372090027111500209    PRODUTO 2 DO CUPOM 046137                                                                           0001000UN 00000200000000000000000000000000000200F1     N000000000000000000000000000000000T32
E15ZP000000000         AZPM/2EFC LOGGER     070461370372090037110706252    PRODUTO 3 DO CUPOM 046137                                                                           0001000UN 00000340000000000000000000000000000340T0320  N000000000000000000000000000000000T32
E15ZP000000000         AZPM/2EFC LOGGER     070461370372090047110701535    PRODUTO 4 DO CUPOM 046137                                                                           0001000UN 00000260000000000000000000000000000260T0320  N000000000000000000000000000000000T32
E15ZP000000000         AZPM/2EFC LOGGER     070461390372100017110221031    PRODUTO 1 DO CUPOM 046139                                                                           0001000UN 00000690000000000000000000000000000690T0320  N000000000000000000000000000000000T32
E15ZP000000000         AZPM/2EFC LOGGER     070461390372100027110901769    PRODUTO 2 DO CUPOM 046139                                                                           0001000UN 00000300000000000000000000000000000300T0320  N000000000000000000000000000000000T32
E15ZP000000000         AZPM/2EFC LOGGER     070461390372100037110701535    PRODUTO 3 DO CUPOM 046139                                                                           0001000UN 00000260000000000000000000000000000260T0320  N000000000000000000000000000000000T32
E15ZP000000000         AZPM/2EFC LOGGER     070461400372110017110704657    PRODUTO 1 DO CUPOM 046140                                                                           0001000UN 00000620000000000000000000000000000620T0320  N000000000000000000000000000000000T32
E15ZP000000000         AZPM/2EFC LOGGER     070461400372110027110901770    PRODUTO 2 DO CUPOM 046140                                                                           0001000UN 00000400000000000000000000000000000400T0320  N000000000000000000000000000000000T32
E15ZP000000000         AZPM/2EFC LOGGER     070461410372120017110706270    PRODUTO 1 DO CUPOM 046141                                                                           0001000UN 00000620000000000000000000000000000620T0320  N000000000000000000000000000000000T32
E15ZP000000000         AZPM/2EFC LOGGER     070461410372120027110901756    PRODUTO 2 DO CUPOM 046141                                                                           0001000UN 00000300000000000000000000000000000300T0320  N000000000000000000000000000000000T32
E15ZP000000000         AZPM/2EFC LOGGER     070461420372130017110221035    PRODUTO 1 DO CUPOM 046142                                                                           0001000UN 00000690000000000000000000000000000690T0320  N000000000000000000000000000000000T32
E15ZP000000000         AZPM/2EFC LOGGER     070461420372130027110706276    PRODUTO 2 DO CUPOM 046142                                                                           0001000UN 00000620000000000000000000000000000620T0320  N000000000000000000000000000000000T32
E15ZP000000000         AZPM/2EFC LOGGER     070461420372130037110701535    PRODUTO 3 DO CUPOM 046142                                                                           0001000UN 00000260000000000000000000000000000260T0320  N000000000000000000000000000000000T32
E15ZP000000000         AZPM/2EFC LOGGER     070461420372130047111500208    PRODUTO 4 DO CUPOM 046142                                                                           0001000UN 00000200000000000000000000000000000200F1     N000000000000000000000000000000000T32
E15ZP000000000         AZPM/2EFC LOGGER     070461420372130057110802948    PRODUTO 5 DO CUPOM 046142                                                                           0001000UN 00000270000000000000000000000000000270T0320  N000000000000000000000000000000000T32
E15ZP000000000         AZPM/2EFC LOGGER     070461440372140017110901769    PRODUTO 1 DO CUPOM 046144                                                                           0001000UN 00000300000000000000000000000000000300T0320  N000000000000000000000000000000000T32
E15ZP000000000         AZPM/2EFC LOGGER     070461450372150017110901769    PRODUTO 1 DO CUPOM 046145                                                                           0001000UN 00000300000000000000000000000000000300T0320  N000000000000000000000000000000000T32
E15ZP000000000         AZPM/2EFC LOGGER     070461450372150027110704657    PRODUTO 2 DO CUPOM 046145                                                                           0001000UN 00000620000000000000000000000000000620T0320  N000000000000000000000000000000000T32
E15ZP000000000         AZPM/2EFC LOGGER     070461470372160017110706282    PRODUTO 1 DO CUPOM 046147                                                                           0001000UN 00000620000000000000000000000000000620T0320  N000000000000000000000000000000000T32
E15ZP000000000         AZPM/2EFC LOGGER     070461470372160027111200108    PRODUTO 2 DO CUPOM 046147                                                                           0001000UN 00000220000000000000000000000000000220T0320  N000000000000000000000000000000000T32
E15ZP000000000         AZPM/2EFC LOGGER     070461480372170017111400237    PRODUTO 1 DO CUPOM 046148                                                                           0004000UN 00000170000000000000000000000000000680T0320  N000000000000000000000000000000000T32
E15ZP000000000         AZPM/2EFC LOGGER     070461500372180017110701502    PRODUTO 1 DO CUPOM 046150                                                                           0001000UN 00000160000000000000000000000000000160T0320  N000000000000000000000000000000000T32
E15ZP000000000         AZPM/2EFC LOGGER     070461510372190017110701502    PRODUTO 1 DO CUPOM 046151                                                                           0001000UN 00000160000000000000000000000000000160T0320  N000000000000000000000000000000000T32
E15ZP000000000         AZPM/2EFC LOGGER     070461520372200017110701502    PRODUTO 1 DO CUPOM 046152                                                                           0002000UN 00000160000000000000000000000000000320T0320  N000000000000000000000000000000000T32
E15ZP000000000         AZPM/2EFC LOGGER     070461530372210017111200353    PRODUTO 1 DO CUPOM 046153                                                                           0003000UN 00000180000000000000000000000000000540T0320  S000000000000000000000000000000000T32
E15ZP000000000         AZPM/2EFC LOGGER     070461530372210027110704657    PRODUTO 2 DO CUPOM 046153                                                                           0002000UN 00000620000000000000000000000000001240T0320  N000000000000000000000000000000000T32
E15ZP000000000         AZPM/2EFC LOGGER     070461530372210037111500276    PRODUTO 3 DO CUPOM 046153                                                                           0002000UN 00000200000000000000000000000000000400F1     N000000000000000000000000000000000T32
E15ZP000000000         AZPM/2EFC LOGGER     070461530372210047110220900    PRODUTO 4 DO CUPOM 046153                                                                           0001000UN 00000001000000000000000000000000000001T0320  N000000000000000000000000000000000T32
E15ZP000000000         AZPM/2EFC LOGGER     070461530372210057110701572    PRODUTO 5 DO CUPOM 046153                                                                           0001000UN 00000340000000000000000000000000000340T0320  N000000000000000000000000000000000T32
E15ZP000000000         AZPM/2EFC LOGGER     070461540372220017110701502    PRODUTO 1 DO CUPOM 046154                                                                           0001000UN 00000160000000000000000000000000000160T0320  N000000000000000000000000000000000T32
E15ZP000000000         AZPM/2EFC LOGGER     070461540372220027111400108    PRODUTO 2 DO CUPOM 046154                                                                           0001000UN 00000220000000000000000000000000000220T0320  N000000000000000000000000000000000T32
E15ZP000000000         AZPM/2EFC LOGGER     070461540372220037110901770    PRODUTO 3 DO CUPOM 046154                                                                           0001000UN 00000400000000000000000000000000000400T0320  N000000000000000000000000000000000T32
E15ZP000000000         AZPM/2EFC LOGGER     070461540372220047110704657    PRODUTO 4 DO CUPOM 046154                                                                           0001000UN 00000620000000000000000000000000000620T0320  S000000000000000000000000000000000T32
E15ZP000000000         AZPM/2EFC LOGGER     070461540372220057110220900    PRODUTO 5 DO CUPOM 046154                                                                           0001000UN 00000001000000000000000000000000000001T0320  S000000000000000000000000000000000T32
E15ZP000000000         AZPM/2EFC LOGGER     070461540372220067110705307    PRODUTO 6 DO CUPOM 046154                                                                           0001000UN 00000260000000000000000000000000000260T0320  N000000000000000000000000000000000T32
E15ZP000000000         AZPM/2EFC LOGGER     070461550372230017110705307    PRODUTO 1 DO CUPOM 046155                                                                           0003000UN 00000260000000000000000000000000000780T0320  N000000000000000000000000000000000T32
E15ZP000000000         AZPM/2EFC LOGGER     070461560372240017110704657    PRODUTO 1 DO CUPOM 046156                                                                           0001000UN 00000620000000000000000000000000000620T0320  N000000000000000000000000000000000T32
E15ZP000000000         AZPM/2EFC LOGGER     070461560372240027111500208    PRODUTO 2 DO CUPOM 046156                                                                           0001000UN 00000200000000000000000000000000000200F1     N000000000000000000000000000000000T32
E15ZP000000000         AZPM/2EFC LOGGER     070461560372240037110220900    PRODUTO 3 DO CUPOM 046156                                                                           0001000UN 00000001000000000000000000000000000001T0320  N000000000000000000000000000000000T32
E15ZP000000000         AZPM/2EFC LOGGER     070461570372250017111400170    PRODUTO 1 DO CUPOM 046157                                                                           0002000UN 00000180000000000000000000000000000360T0320  N000000000000000000000000000000000T32
E15ZP000000000         AZPM/2EFC LOGGER     070461570372250027111400237    PRODUTO 2 DO CUPOM 046157                                                                           0001000UN 00000170000000000000000000000000000170T0320  N000000000000000000000000000000000T32
E15ZP000000000         AZPM/2EFC LOGGER     070461580372260017111500102    PRODUTO 1 DO CUPOM 046158                                                                           0001000UN 00000200000000000000000000000000000200F1     N000000000000000000000000000000000T32
E15ZP000000000         AZPM/2EFC LOGGER     070461580372260027110704657    PRODUTO 2 DO CUPOM 046158                                                                           0001000UN 00000620000000000000000000000000000620T0320  N000000000000000000000000000000000T32
E15ZP000000000         AZPM/2EFC LOGGER     070461580372260037110705345    PRODUTO 3 DO CUPOM 046158                                                                           0001000UN 00000340000000000000000000000000000340T0320  N000000000000000000000000000000000T32
E15ZP000000000         AZPM/2EFC LOGGER     070461580372260047110220900    PRODUTO 4 DO CUPOM 046158                                                                           0001000UN 00000001000000000000000000000000000001T0320  N000000000000000000000000000000000T32
E15ZP000000000         AZPM/2EFC LOGGER     070461600372270017110701502    PRODUTO 1 DO CUPOM 046160                                                                           0001000UN 00000160000000000000000000000000000160T0320  N000000000000000000000000000000000T32
E15ZP000000000         AZPM/2EFC LOGGER     070461600372270027111400159    PRODUTO 2 DO CUPOM 046160                                                                           0001000UN 00000220000000000000000000000000000220T0320  N000000000000000000000000000000000T32
E15ZP000000000         AZPM/2EFC LOGGER     070461610372280017110701573    PRODUTO 1 DO CUPOM 046161                                                                           0001000UN 00000260000000000000000000000000000260T0320  N000000000000000000000000000000000T32
E15ZP000000000         AZPM/2EFC LOGGER     070461610372280027110701502    PRODUTO 2 DO CUPOM 046161                                                                           0001000UN 00000160000000000000000000000000000160T0320  S000000000000000000000000000000000T32
E15ZP000000000         AZPM/2EFC LOGGER     070461610372280037111500208    PRODUTO 3 DO CUPOM 046161                                                                           0001000UN 00000200000000000000000000000000000200F1     N000000000000000000000000000000000T32
E15ZP000000000         AZPM/2EFC LOGGER     070461630372290017110706263    PRODUTO 1 DO CUPOM 046163                                                                           0001000UN 00000620000000000000000000000000000620T0320  N000000000000000000000000000000000T32
E15ZP000000000         AZPM/2EFC LOGGER     070461630372290027110701573    PRODUTO 2 DO CUPOM 046163                                                                           0001000UN 00000260000000000000000000000000000260T0320  N000000000000000000000000000000000T32
E15ZP000000000         AZPM/2EFC LOGGER     070461630372290037111500208    PRODUTO 3 DO CUPOM 046163                                                                           0001000UN 00000200000000000000000000000000000200F1     N000000000000000000000000000000000T32
E15ZP000000000         AZPM/2EFC LOGGER     070461650372300017110704657    PRODUTO 1 DO CUPOM 046165                                                                           0001000UN 00000620000000000000000000000000000620T0320  N000000000000000000000000000000000T32
E15ZP000000000         AZPM/2EFC LOGGER     070461650372300027111500221    PRODUTO 2 DO CUPOM 046165                                                                           0001000UN 00000270000000000000000000000000000270F1     N000000000000000000000000000000000T32
E15ZP000000000         AZPM/2EFC LOGGER     070461660372310017110704657    PRODUTO 1 DO CUPOM 046166                                                                           0001000UN 00000620000000000000000000000000000620T0320  N000000000000000000000000000000000T32
E15ZP000000000         AZPM/2EFC LOGGER     070461660372310027110901770    PRODUTO 2 DO CUPOM 046166                                                                           0001000UN 00000400000000000000000000000000000400T0320  N000000000000000000000000000000000T32
E15ZP000000000         AZPM/2EFC LOGGER     070461660372310037111400237    PRODUTO 3 DO CUPOM 046166                                                                           0001000UN 00000170000000000000000000000000000170T0320  N000000000000000000000000000000000T32
E15ZP000000000         AZPM/2EFC LOGGER     070461690372320017111400268    PRODUTO 1 DO CUPOM 046169                                                                           0001000UN 00000140000000000000000000000000000140T0320  N000000000000000000000000000000000T32
E15ZP000000000         AZPM/2EFC LOGGER     070461700372330017110704657    PRODUTO 1 DO CUPOM 046170                                                                           0001000UN 00000620000000000000000000000000000620T0320  N000000000000000000000000000000000T32
E15ZP000000000         AZPM/2EFC LOGGER     070461700372330027110901769    PRODUTO 2 DO CUPOM 046170                                                                           0001000UN 00000300000000000000000000000000000300T0320  N000000000000000000000000000000000T32
E15ZP000000000         AZPM/2EFC LOGGER     070461700372330037111200132    PRODUTO 3 DO CUPOM 046170                                                                           0001000UN 00000150000000000000000000000000000150T0320  N000000000000000000000000000000000T32
E15ZP000000000         AZPM/2EFC LOGGER     070461710372340017111500282    PRODUTO 1 DO CUPOM 046171                                                                           0001000UN 00000270000000000000000000000000000270F1     N000000000000000000000000000000000T32
E15ZP000000000         AZPM/2EFC LOGGER     070461710372340027110704657    PRODUTO 2 DO CUPOM 046171                                                                           0001000UN 00000620000000000000000000000000000620T0320  N000000000000000000000000000000000T32
E15ZP000000000         AZPM/2EFC LOGGER     070461720372350017110704657    PRODUTO 1 DO CUPOM 046172                                                                           0002000UN 00000620000000000000000000000000001240T0320  N000000000000000000000000000000000T32
E15ZP000000000         AZPM/2EFC LOGGER     070461720372350027110901769    PRODUTO 2 DO CUPOM 046172                                                                           0001000UN 00000300000000000000000000000000000300T0320  N000000000000000000000000000000000T32
E15ZP000000000         AZPM/2EFC LOGGER     070461720372350037110901756    PRODUTO 3 DO CUPOM 046172                                                                           0001000UN 00000300000000000000000000000000000300T0320  N000000000000000000000000000000000T32
E15ZP000000000         AZPM/2EFC LOGGER     070461720372350047111400237    PRODUTO 4 DO CUPOM 046172                                                                           0002000UN 00000170000000000000000000000000000340T0320  N000000000000000000000000000000000T32
E15ZP000000000         AZPM/2EFC LOGGER     070461720372350057110220900    PRODUTO 5 DO CUPOM 046172                                                                           0002000UN 00000001000000000000000000000000000002T0320  N000000000000000000000000000000000T32
E15ZP000000000         AZPM/2EFC LOGGER     070461720372350067111400237    PRODUTO 6 DO CUPOM 046172                                                                           0001000UN 00000170000000000000000000000000000170T0320  N000000000000000000000000000000000T32
E15ZP000000000         AZPM/2EFC LOGGER     070461730372360017111200108    PRODUTO 1 DO CUPOM 046173                                                                           0001000UN 00000220000000000000000000000000000220T0320  N000000000000000000000000000000000T32
E15ZP000000000         AZPM/2EFC LOGGER     070461730372360027110701502    PRODUTO 2 DO CUPOM 046173                                                                           0002000UN 00000160000000000000000000000000000320T0320  N000000000000000000000000000000000T32
E15ZP000000000         AZPM/2EFC LOGGER     070461730372360037111200103    PRODUTO 3 DO CUPOM 046173                                                                           0001000UN 00000120000000000000000000000000000120T0320  N000000000000000000000000000000000T32
E15ZP000000000         AZPM/2EFC LOGGER     070461740372370017111200108    PRODUTO 1 DO CUPOM 046174                                                                           0001000UN 00000220000000000000000000000000000220T0320  N000000000000000000000000000000000T32
E15ZP000000000         AZPM/2EFC LOGGER     070461740372370027110901770    PRODUTO 2 DO CUPOM 046174                                                                           0001000UN 00000400000000000000000000000000000400T0320  N000000000000000000000000000000000T32
E15ZP000000000         AZPM/2EFC LOGGER     070461740372370037110701502    PRODUTO 3 DO CUPOM 046174                                                                           0002000UN 00000160000000000000000000000000000320T0320  N000000000000000000000000000000000T32
E15ZP000000000         AZPM/2EFC LOGGER     070461810372380017110704657    PRODUTO 1 DO CUPOM 046181                                                                           0001000UN 00000620000000000000000000000000000620T0320  S000000000000000000000000000000000T32
E15ZP000000000         AZPM/2EFC LOGGER     070461810372380027110706267    PRODUTO 2 DO CUPOM 046181                                                                           0001000UN 00000620000000000000000000000000000620T0320  N000000000000000000000000000000000T32
E15ZP000000000         AZPM/2EFC LOGGER     070461810372380037111500208    PRODUTO 3 DO CUPOM 046181                                                                           0001000UN 00000200000000000000000000000000000200F1     N000000000000000000000000000000000T32
E15ZP000000000         AZPM/2EFC LOGGER     070461810372380047110220900    PRODUTO 4 DO CUPOM 046181                                                                           0001000UN 00000001000000000000000000000000000001T0320  N000000000000000000000000000000000T32
E15ZP000000000         AZPM/2EFC LOGGER     070461810372380057111400237    PRODUTO 5 DO CUPOM 046181                                                                           0002000UN 00000170000000000000000000000000000340T0320  N000000000000000000000000000000000T32
E15ZP000000000         AZPM/2EFC LOGGER     070461830372390017111500208    PRODUTO 1 DO CUPOM 046183                                                                           0001000UN 00000200000000000000000000000000000200F1     N000000000000000000000000000000000T32
E15ZP000000000         AZPM/2EFC LOGGER     070461830372390027111200132    PRODUTO 2 DO CUPOM 046183                                                                           0001000UN 00000150000000000000000000000000000150T0320  N000000000000000000000000000000000T32
E15ZP000000000         AZPM/2EFC LOGGER     070461850372400017110701502    PRODUTO 1 DO CUPOM 046185                                                                           0001000UN 00000160000000000000000000000000000160T0320  N000000000000000000000000000000000T32
E15ZP000000000         AZPM/2EFC LOGGER     070461850372400027111400158    PRODUTO 2 DO CUPOM 046185                                                                           0001000UN 00000280000000000000000000000000000280T0320  N000000000000000000000000000000000T32
E15ZP000000000         AZPM/2EFC LOGGER     070461860372410017111200163    PRODUTO 1 DO CUPOM 046186                                                                           0001000UN 00000250000000000000000000000000000250T0320  N000000000000000000000000000000000T32
E15ZP000000000         AZPM/2EFC LOGGER     070461860372410027110704657    PRODUTO 2 DO CUPOM 046186                                                                           0001000UN 00000620000000000000000000000000000620T0320  N000000000000000000000000000000000T32
E15ZP000000000         AZPM/2EFC LOGGER     070461860372410037110901769    PRODUTO 3 DO CUPOM 046186                                                                           0001000UN 00000300000000000000000000000000000300T0320  N000000000000000000000000000000000T32
E15ZP000000000         AZPM/2EFC LOGGER     070461880372420017111500282    PRODUTO 1 DO CUPOM 046188                                                                           0001000UN 00000270000000000000000000000000000270F1     N000000000000000000000000000000000T32
E15ZP000000000         AZPM/2EFC LOGGER     070461880372420027111200370    PRODUTO 2 DO CUPOM 046188                                                                           0001000UN 00000150000000000000000000000000000150T0320  N000000000000000000000000000000000T32
E15ZP000000000         AZPM/2EFC LOGGER     070461890372430017110802948    PRODUTO 1 DO CUPOM 046189                                                                           0002000UN 00000270000000000000000000000000000540T0320  N000000000000000000000000000000000T32
E15ZP000000000         AZPM/2EFC LOGGER     070461890372430027110802949    PRODUTO 2 DO CUPOM 046189                                                                           0001000UN 00000270000000000000000000000000000270T0320  N000000000000000000000000000000000T32
E15ZP000000000         AZPM/2EFC LOGGER     070461900372440017110901770    PRODUTO 1 DO CUPOM 046190                                                                           0001000UN 00000400000000000000000000000000000400T0320  N000000000000000000000000000000000T32
E15ZP000000000         AZPM/2EFC LOGGER     070461900372440027110708243    PRODUTO 2 DO CUPOM 046190                                                                           0001000UN 00000620000000000000000000000000000620T0320  N000000000000000000000000000000000T32
E15ZP000000000         AZPM/2EFC LOGGER     070461900372440037110220900    PRODUTO 3 DO CUPOM 046190                                                                           0001000UN 00000001000000000000000000000000000001T0320  N000000000000000000000000000000000T32
E15ZP000000000         AZPM/2EFC LOGGER     070461910372450017110704657    PRODUTO 1 DO CUPOM 046191                                                                           0001000UN 00000620000000000000000000000000000620T0320  N000000000000000000000000000000000T32
E15ZP000000000         AZPM/2EFC LOGGER     070461910372450027110901740    PRODUTO 2 DO CUPOM 046191                                                                           0001000UN 00000300000000000000000000000000000300T0320  N000000000000000000000000000000000T32
E15ZP000000000         AZPM/2EFC LOGGER     070461920372460017111400237    PRODUTO 1 DO CUPOM 046192                                                                           0001000UN 00000170000000000000000000000000000170T0320  N000000000000000000000000000000000T32
E15ZP000000000         AZPM/2EFC LOGGER     070461940372470017110708243    PRODUTO 1 DO CUPOM 046194                                                                           0001000UN 00000620000000000000000000000000000620T0320  N000000000000000000000000000000000T32
E15ZP000000000         AZPM/2EFC LOGGER     070461940372470027110901770    PRODUTO 2 DO CUPOM 046194                                                                           0001000UN 00000400000000000000000000000000000400T0320  N000000000000000000000000000000000T32
E15ZP000000000         AZPM/2EFC LOGGER     070461950372480017110220900    PRODUTO 1 DO CUPOM 046195                                                                           0001000UN 00000001000000000000000000000000000001T0320  N000000000000000000000000000000000T32
E15ZP000000000         AZPM/2EFC LOGGER     070461960372490017110706267    PRODUTO 1 DO CUPOM 046196                                                                           0001000UN 00000620000000000000000000000000000620T0320  N000000000000000000000000000000000T32
E15ZP000000000         AZPM/2EFC LOGGER     070461960372490027110802949    PRODUTO 2 DO CUPOM 046196                                                                           0001000UN 00000270000000000000000000000000000270T0320  N000000000000000000000000000000000T32
E15ZP000000000         AZPM/2EFC LOGGER     070461960372490037110901769    PRODUTO 3 DO CUPOM 046196                                                                           0001000UN 00000300000000000000000000000000000300T0320  N000000000000000000000000000000000T32
E15ZP000000000         AZPM/2EFC LOGGER     070461960372490047110220900    PRODUTO 4 DO CUPOM 046196                                                                           0001000UN 00000001000000000000000000000000000001T0320  N000000000000000000000000000000000T32
E15ZP000000000         AZPM/2EFC LOGGER     070461980372500017111400121    PRODUTO 1 DO CUPOM 046198                                                                           0001000UN 00000280000000000000000000000000000280T0320  N000000000000000000000000000000000T32
E15ZP000000000         AZPM/2EFC LOGGER     070462000372510017111400159    PRODUTO 1 DO CUPOM 046200                                                                           0001000UN 00000220000000000000000000000000000220T0320  N000000000000000000000000000000000T32
E15ZP000000000         AZPM/2EFC LOGGER     070462000372510027110901769    PRODUTO 2 DO CUPOM 046200                                                                           0001000UN 00000300000000000000000000000000000300T0320  N000000000000000000000000000000000T32
E15ZP000000000         AZPM/2EFC LOGGER     070462000372510037111200163    PRODUTO 3 DO CUPOM 046200                                                                           0001000UN 00000250000000000000000000000000000250T0320  N000000000000000000000000000000000T32
E15ZP000000000         AZPM/2EFC LOGGER     070462010372520017110704657    PRODUTO 1 DO CUPOM 046201                                                                           0002000UN 00000620000000000000000000000000001240T0320  N000000000000000000000000000000000T32
E15ZP000000000         AZPM/2EFC LOGGER     070462010372520027110704657    PRODUTO 2 DO CUPOM 046201                                                                           0001000UN 00000620000000000000000000000000000620T0320  N000000000000000000000000000000000T32
E15ZP000000000         AZPM/2EFC LOGGER     070462010372520037111400158    PRODUTO 3 DO CUPOM 046201                                                                           0002000UN 00000280000000000000000000000000000560T0320  N000000000000000000000000000000000T32
E15ZP000000000         AZPM/2EFC LOGGER     070462030372530017110901769    PRODUTO 1 DO CUPOM 046203                                                                           0001000UN 00000300000000000000000000000000000300T0320  N000000000000000000000000000000000T32
E15ZP000000000         AZPM/2EFC LOGGER     070462030372530027110704657    PRODUTO 2 DO CUPOM 046203                                                                           0001000UN 00000620000000000000000000000000000620T0320  N000000000000000000000000000000000T32
E15ZP000000000         AZPM/2EFC LOGGER     070462030372530037110220900    PRODUTO 3 DO CUPOM 046203                                                                           0003000UN 00000001000000000000000000000000000003T0320  N000000000000000000000000000000000T32
E15ZP000000000         AZPM/2EFC LOGGER     070462050372540017111500208    PRODUTO 1 DO CUPOM 046205                                                                           0001000UN 00000200000000000000000000000000000200F1     N000000000000000000000000000000000T32
E15ZP000000000         AZPM/2EFC LOGGER     070462050372540027110701535    PRODUTO 2 DO CUPOM 046205                                                                           0001000UN 00000260000000000000000000000000000260T0320  N000000000000000000000000000000000T32
E15ZP000000000         AZPM/2EFC LOGGER     070462060372550017110701535    PRODUTO 1 DO CUPOM 046206                                                                           0002000UN 00000260000000000000000000000000000520T0320  N000000000000000000000000000000000T32
E15ZP000000000         AZPM/2EFC LOGGER     070462060372550027110701502    PRODUTO 2 DO CUPOM 046206                                                                           0002000UN 00000160000000000000000000000000000320T0320  N000000000000000000000000000000000T32
E15ZP000000000         AZPM/2EFC LOGGER     070462060372550037111400158    PRODUTO 3 DO CUPOM 046206                                                                           0002000UN 00000280000000000000000000000000000560T0320  N000000000000000000000000000000000T32
E15ZP000000000         AZPM/2EFC LOGGER     070462060372550047111400276    PRODUTO 4 DO CUPOM 046206                                                                           0001000UN 00000001000000000000000000000000000001T0320  N000000000000000000000000000000000T32
E15ZP000000000         AZPM/2EFC LOGGER     070462070372560017110701535    PRODUTO 1 DO CUPOM 046207                                                                           0001000UN 00000260000000000000000000000000000260T0320  N000000000000000000000000000000000T32
E15ZP000000000         AZPM/2EFC LOGGER     070462070372560027111400121    PRODUTO 2 DO CUPOM 046207                                                                           0001000UN 00000280000000000000000000000000000280T0320  N000000000000000000000000000000000T32
E15ZP000000000         AZPM/2EFC LOGGER     070462080372570017110901782    PRODUTO 1 DO CUPOM 046208                                                                           0001000UN 00000220000000000000000000000000000220T0320  N000000000000000000000000000000000T32
E15ZP000000000         AZPM/2EFC LOGGER     070462080372570027110701535    PRODUTO 2 DO CUPOM 046208                                                                           0001000UN 00000260000000000000000000000000000260T0320  N000000000000000000000000000000000T32
E15ZP000000000         AZPM/2EFC LOGGER     070462080372570037110701502    PRODUTO 3 DO CUPOM 046208                                                                           0001000UN 00000160000000000000000000000000000160T0320  N000000000000000000000000000000000T32
E15ZP000000000         AZPM/2EFC LOGGER     070462080372570047111200116    PRODUTO 4 DO CUPOM 046208                                                                           0001000UN 00000150000000000000000000000000000150T0320  N000000000000000000000000000000000T32
E15ZP000000000         AZPM/2EFC LOGGER     070462110372580017110901770    PRODUTO 1 DO CUPOM 046211                                                                           0001000UN 00000400000000000000000000000000000400T0320  N000000000000000000000000000000000T32
E15ZP000000000         AZPM/2EFC LOGGER     070462110372580027110701502    PRODUTO 2 DO CUPOM 046211                                                                           0002000UN 00000160000000000000000000000000000320T0320  N000000000000000000000000000000000T32
E15ZP000000000         AZPM/2EFC LOGGER     070462110372580037111200275    PRODUTO 3 DO CUPOM 046211                                                                           0003000UN 00000060000000000000000000000000000180T0320  N000000000000000000000000000000000T32
E15ZP000000000         AZPM/2EFC LOGGER     070462120372590017111200127    PRODUTO 1 DO CUPOM 046212                                                                           0001000UN 00000150000000000000000000000000000150T0320  N000000000000000000000000000000000T32
E15ZP000000000         AZPM/2EFC LOGGER     070462130372600017111400107    PRODUTO 1 DO CUPOM 046213                                                                           0001000UN 00000280000000000000000000000000000280T0320  N000000000000000000000000000000000T32
E15ZP000000000         AZPM/2EFC LOGGER     070462130372600027111500101    PRODUTO 2 DO CUPOM 046213                                                                           0001000UN 00000200000000000000000000000000000200F1     N000000000000000000000000000000000T32
E15ZP000000000         AZPM/2EFC LOGGER     070462140372610017111400237    PRODUTO 1 DO CUPOM 046214                                                                           0002000UN 00000170000000000000000000000000000340T0320  N000000000000000000000000000000000T32
E15ZP000000000         AZPM/2EFC LOGGER     070462150372620017110701535    PRODUTO 1 DO CUPOM 046215                                                                           0001000UN 00000260000000000000000000000000000260T0320  N000000000000000000000000000000000T32
E15ZP000000000         AZPM/2EFC LOGGER     070462150372620027111400148    PRODUTO 2 DO CUPOM 046215                                                                           0001000UN 00000280000000000000000000000000000280T0320  N000000000000000000000000000000000T32
E15ZP000000000         AZPM/2EFC LOGGER     070462160372630017111500282    PRODUTO 1 DO CUPOM 046216                                                                           0001000UN 00000270000000000000000000000000000270F1     N000000000000000000000000000000000T32
E15ZP000000000         AZPM/2EFC LOGGER     070462170372640017111500208    PRODUTO 1 DO CUPOM 046217                                                                           0001000UN 00000200000000000000000000000000000200F1     N000000000000000000000000000000000T32
E15ZP000000000         AZPM/2EFC LOGGER     070462170372640027111200132    PRODUTO 2 DO CUPOM 046217                                                                           0001000UN 00000150000000000000000000000000000150T0320  N000000000000000000000000000000000T32
E15ZP000000000         AZPM/2EFC LOGGER     070462180372650017110704657    PRODUTO 1 DO CUPOM 046218                                                                           0001000UN 00000620000000000000000000000000000620T0320  N000000000000000000000000000000000T32
E15ZP000000000         AZPM/2EFC LOGGER     070462180372650027110701535    PRODUTO 2 DO CUPOM 046218                                                                           0001000UN 00000260000000000000000000000000000260T0320  N000000000000000000000000000000000T32
E15ZP000000000         AZPM/2EFC LOGGER     070462180372650037110701502    PRODUTO 3 DO CUPOM 046218                                                                           0001000UN 00000160000000000000000000000000000160T0320  N000000000000000000000000000000000T32
E15ZP000000000         AZPM/2EFC LOGGER     070462180372650047111500136    PRODUTO 4 DO CUPOM 046218                                                                           0001000UN 00000310000000000000000000000000000310F1     N000000000000000000000000000000000T32
E15ZP000000000         AZPM/2EFC LOGGER     070462190372660017111400237    PRODUTO 1 DO CUPOM 046219                                                                           0002000UN 00000170000000000000000000000000000340T0320  N000000000000000000000000000000000T32
E15ZP000000000         AZPM/2EFC LOGGER     070462190372660027111400236    PRODUTO 2 DO CUPOM 046219                                                                           0001000UN 00000170000000000000000000000000000170T0320  N000000000000000000000000000000000T32
E15ZP000000000         AZPM/2EFC LOGGER     070462190372660037110220900    PRODUTO 3 DO CUPOM 046219                                                                           0001000UN 00000001000000000000000000000000000001T0320  N000000000000000000000000000000000T32
E15ZP000000000         AZPM/2EFC LOGGER     070462200372670017111500208    PRODUTO 1 DO CUPOM 046220                                                                           0001000UN 00000200000000000000000000000000000200F1     N000000000000000000000000000000000T32
E15ZP000000000         AZPM/2EFC LOGGER     070462200372670027111200351    PRODUTO 2 DO CUPOM 046220                                                                           0001000UN 00000380000000000000000000000000000380T0320  N000000000000000000000000000000000T32
E15ZP000000000         AZPM/2EFC LOGGER     070462210372680017111200108    PRODUTO 1 DO CUPOM 046221                                                                           0002000UN 00000220000000000000000000000000000440T0320  N000000000000000000000000000000000T32
E15ZP000000000         AZPM/2EFC LOGGER     070462210372680027111200103    PRODUTO 2 DO CUPOM 046221                                                                           0001000UN 00000120000000000000000000000000000120T0320  N000000000000000000000000000000000T32
E15ZP000000000         AZPM/2EFC LOGGER     070462220372690017110704657    PRODUTO 1 DO CUPOM 046222                                                                           0001000UN 00000620000000000000000000000000000620T0320  N000000000000000000000000000000000T32
E15ZP000000000         AZPM/2EFC LOGGER     070462220372690027111500208    PRODUTO 2 DO CUPOM 046222                                                                           0001000UN 00000200000000000000000000000000000200F1     N000000000000000000000000000000000T32
E15ZP000000000         AZPM/2EFC LOGGER     070462220372690037110220900    PRODUTO 3 DO CUPOM 046222                                                                           0001000UN 00000001000000000000000000000000000001T0320  N000000000000000000000000000000000T32
E15ZP000000000         AZPM/2EFC LOGGER     070462230372700017110220900    PRODUTO 1 DO CUPOM 046223                                                                           0001000UN 00000001000000000000000000000000000001T0320  N000000000000000000000000000000000T32
E15ZP000000000         AZPM/2EFC LOGGER     070462230372700027111500208    PRODUTO 2 DO CUPOM 046223                                                                           0001000UN 00000200000000000000000000000000000200F1     N000000000000000000000000000000000T32
E15ZP000000000         AZPM/2EFC LOGGER     070462230372700037110708243    PRODUTO 3 DO CUPOM 046223                                                                           0001000UN 00000620000000000000000000000000000620T0320  N000000000000000000000000000000000T32
E15ZP000000000         AZPM/2EFC LOGGER     070462230372700047111500101    PRODUTO 4 DO CUPOM 046223                                                                           0001000UN 00000200000000000000000000000000000200F1     N000000000000000000000000000000000T32
E15ZP000000000         AZPM/2EFC LOGGER     070462230372700057111400237    PRODUTO 5 DO CUPOM 046223                                                                           0001000UN 00000170000000000000000000000000000170T0320  N000000000000000000000000000000000T32
E15ZP000000000         AZPM/2EFC LOGGER     070462240372710017111200123    PRODUTO 1 DO CUPOM 046224                                                                           0001000UN 00000250000000000000000000000000000250T0320  S000000000000000000000000000000000T32
E15ZP000000000         AZPM/2EFC LOGGER     070462240372710027111400237    PRODUTO 2 DO CUPOM 046224                                                                           0001000UN 00000170000000000000000000000000000170T0320  N000000000000000000000000000000000T32
E15ZP000000000         AZPM/2EFC LOGGER     070462260372720017111200306    PRODUTO 1 DO CUPOM 046226                                                                           0001000UN 00000160000000000000000000000000000160T0320  N000000000000000000000000000000000T32
E15ZP000000000         AZPM/2EFC LOGGER     070462260372720027111400237    PRODUTO 2 DO CUPOM 046226                                                                           0001000UN 00000170000000000000000000000000000170T0320  N000000000000000000000000000000000T32
E15ZP000000000         AZPM/2EFC LOGGER     070462280372730017110221031    PRODUTO 1 DO CUPOM 046228                                                                           0002000UN 00000690000000000000000000000000001380T0320  N000000000000000000000000000000000T32
E15ZP000000000         AZPM/2EFC LOGGER     070462290372740017111400159    PRODUTO 1 DO CUPOM 046229                                                                           0001000UN 00000220000000000000000000000000000220T0320  N000000000000000000000000000000000T32
E15ZP000000000         AZPM/2EFC LOGGER     070462290372740027110801300    PRODUTO 2 DO CUPOM 046229                                                                           0001000UN 00000240000000000000000000000000000240T0320  N000000000000000000000000000000000T32
E15ZP000000000         AZPM/2EFC LOGGER     070462310372750017111400158    PRODUTO 1 DO CUPOM 046231                                                                           0001000UN 00000280000000000000000000000000000280T0320  N000000000000000000000000000000000T32
E15ZP000000000         AZPM/2EFC LOGGER     070462310372750027111200306    PRODUTO 2 DO CUPOM 046231                                                                           0001000UN 00000160000000000000000000000000000160T0320  N000000000000000000000000000000000T32
